:0800000095C01FC1E4C0FCCF54
:10000800FBCFFACFF9CFF8CFF7CF08C1F5CFF4CFB0
:10001800F3CFF2CFF1CFF0CFEFCFEECFEDCF102768
:10002800E80364000A00010000100001100001004C
:10003800000000000000000052454C4158212121D9
:100048000057454C434F4D45210044455349474EC1
:10005800455220522E4B2E005055542054484520CE
:1000680043554646005448454E2050524553532068
:10007800535441525400444F4E2754204D4F564537
:1000880021210050524553535552452049533A2592
:100098003473005359533A253373002020004449E0
:1000A800413A25337300482E524154453A2533735B
:1000B8000043756666206973206E6F7400707574EE
:1000C80020636F72726563746C79000001002D4EB5
:1000D800414E00494E46000080C007000500380028
:1000E8000900600140000900690149000E00720121
:1000F80052000D008001600011008D016D000D009F
:100108009E017E000300AB01A3000C00AE01B90004
:100118000E00BA01C50001006E03D400020072038C
:10012800E0000000F894EE27ECBBF1E0FBBFEBBF6A
:10013800E5BF8DE0A2E0BB27ED938A95E9F780E063
:1001480094E0A0E6ED930197E9F7E2EEF0E08591FF
:100158009591009761F0A591B59105901590BF0113
:10016800F00105900D920197E1F7FB01F0CFEFE563
:10017800EDBFE4E0EEBFC0E6D1E07AC009D5249730
:10018800EC81FD81662777278BD6ACE9B3E382EA59
:100198009EE310D7DF01CB01EBE7F4E16BE272E4F9
:1001A800FAD4FCD4FDD426960895AA93E881E06495
:1001B800E7B98BE18A95F1F7369A349BFECF349AEA
:1001C800E4B1F5B180C40A921A92FA926A937A93CA
:1001D8008A939A93AA93BA93EA93FA93EFB7EA9316
:1001E8009698979ADFD4A0E6B1E035D4E0D4E7D466
:1001F80014F4DDD4FCCF9798E8E1E1BDE8E0E1BD77
:10020800E991EFBFF991E991B991A99199918991F2
:1002180079916991F990199009901895EA93FA9350
:10022800EFB7EA93D0D43296E0937402F093750254
:10023800E991EFBFF991E9911895AA93EA93FA9396
:10024800EFB7EA93E1E0BE2E9924E8EC9E1650F44D
:10025800E92DBED4A0E0A083E92DBED4A0E0A08300
:100268009394F3CFE991EFBFF991E991A99118958A
:10027800E0E0E7BBE8BBE0E2E4BBE0E0E5BBE0ECE4
:10028800E1BBECE0E2BBE3E0E3BFE0E0E2BFEFBDEF
:10029800EEBDEDBDECBDE7BDE6BDEBBDEABDE9BD1C
:1002A800E8BDE2BDE5BDE4BDE3BDE1E0E9BFEBB714
:1002B800E06CEBBFEAE0E5BFE0ECEABFE0E0EAB9FA
:1002C800E0E8E8B9E0E4E7B9E3E8E6B9E0E0E0BF90
:1002D800EDB9E6BFA0E1CFD3789495D3E4E0EA93F3
:1002E800A0E082D3A9E6B1E07BD4A2E7B1E0B3D322
:1002F800A0EDB7E05FD556D4A0E8B1E0ACD375D493
:1003080077D4ADE8B1E0A7D3A4EFB1E053D5E1E0ED
:10031800EB1509F053C146D4AEE9B1E09CD3A6E48D
:1003280069D4969A44D4E0EAF0E0CE16DF0644F4A5
:100338003ED445D424F460D464D45AD476D4F3CFCC
:100348009698A4EFB1E036D5E0E0E0936E02E09332
:100358006F0266246DD4E6E4F0E0EC15FD050CF0C0
:1003680052C0A1E022DFE0936802F09369021FD433
:10037800A2E340D4A1E019DFE0936A02F0936B0294
:100388003BD43FD435D451D459D4A13AE0E0BE0788
:10039800CCF154D4129657D4EA17FB071CF4E1E0C9
:1003A8007E2E30C050D4329649D4AE17BF0754F5CC
:1003B800772039F1662009F43BD4E62D0DD4A091BD
:1003C8006A02A083E62D04D4C082E62D41D4AE0F84
:1003D800BF1FF9D342D4F7D6E62DFED3A081E09112
:1003E8006E02F0916F02B0E0EA17FB074CF4E62DBD
:1003F800F3D3E081F0E0E0936E02F0936F02862C75
:1004080063947724A8CFE3B7E070E3BFE0E0E61594
:1004180018F4E62DE1505E2EF6D2E2E0E51508F07C
:10042800BDC06624E0E0E0936A03E0936B03E093C9
:100438006C03E0936D0399249514C8F5A92DBB2787
:100448008DD6A258BD4FB9D67F936F93FF93EF9384
:10045800E92DFED3AE0FBF1FB0D6AF91BF918F91DC
:100468009F9199D3FDD305D4E0E0F0E06AE774E406
:1004780054D60E2EFED3E0E0F0E066E174E453D6E5
:10048800E02199F0E0916A03F0916B0360916C03AD
:1004980070916D03EED33ED5E0936A03F0936B033E
:1004A80060936C0370936D0363949394C5CFE82DA8
:1004B8008FD3E081F0E0E0937002F0937102E09155
:1004C8002D02F0E0E0936C02F0936D02E09170026F
:1004D800F0917102A3E0B0E059D6A0916C02B091FE
:1004E8006D02EA1BFB0BB9D3DF01CB01EDECFCEC91
:1004F8006CE070E4ADD5A2E7B2E09BD4ED93FC9339
:10050800E0916C02F0916D02A8D375D66ED3BAD380
:10051800EBE9F0E0BFD369D3A0E066D286D3ABEABB
:10052800B1E099D2E0917202F091730296D363D64A
:100538005CD3A8D3E6EAF0E0ADD377D3E0E0E615E4
:1005480050F5E62DF0E0A0916A03B0916B0380911D
:100558006C0390916D0381D37BD582D3E0917602B1
:10056800F09177026091780270917902A0E0B0E68C
:100578008AE697E46DD55BD44E2EFF27662777274A
:100588008FD439D632D37ED3EEEAF0E083D3E2E0DB
:10059800EA932ED34AD3A4E62DD307C003D3AEEAF9
:1005A800B1E01ED3AAEBB1E056D2BB249698979A35
:1005B800FED205D314F4FBD2FCCF9798A8CEFFCF78
:1005C800E7D234D672D31296F4D53097F1F06DD3C2
:1005D8006FD38F01309761F00230E0E01E0770F0B2
:1005E800F80131978F01AA81BB811496ED93FC9392
:1005F8005CD3129660D33197AC81A08356D3D9D5FA
:10060800FF2312F052D357D305C04FD3EFEFFFEFBC
:10061800ED93FC9312D625960895BAD2269702D662
:1006280010E0AC85BD85E0E0F0E0ED93FC93EA894D
:10063800FB893196EA8BFB8B3197E4912E2FE030C2
:1006480009F4F9C0E12FE03031F4253211F411E05A
:1006580001C037D3EFC0E130A1F4253211F431D312
:10066800E8C012E040E000E02D3211F401E0E2C001
:100678002B3211F44BE2DEC0203211F440E2DAC032
:1006880002C0E23039F450E013E0203311F400687E
:10069800D1C003C0E33009F0CDC0203310F02A33B5
:1006A80008F007C0AAE05A9F502DE22FE0535E0FD2
:1006B800C1C0E22FE33639F40BD30DD309D3A4819B
:1006C800AA930DD3B6C0E33731F40FD310D312D3A6
:1006D80008D21E2F08C0E03751F407D308D30AD335
:1006E8000BD21E2F086002600F7730E02EC0E43670
:1006F80011F0E93611F4046002C0E53729F4E6E2A6
:10070800F0E0FDD215E00BC0E83511F4086003C035
:10071800E83709F08EC0E0E3F0E0F1D214E002FF20
:1007280011C0E3D2E4D2EED2AB85AA232AF4EA853B
:10073800FB8503D5E7D24DE2403011F01F5F01C0C1
:100748000B7F03C0D2D2D3D2DDD200FD10C0151763
:1007580070F407FF08C002FF04C00B7F242F11505C
:1007680001C020E301C020E2ACD25150F0CF312FBC
:1007780001FF12C0303079F003FF04C0C6D22591C2
:10078800BED203C0C5D22D91C6D29BD2503009F03B
:1007980051503150EFCF44C020E3B7D219D5E88784
:1007A800F987B3D23296ABD2E885F985AA85BB859D
:1007B800AE17BF0748F02F5FA885B985EA85FB8586
:1007C800EA1BFB0B9FD2F0CF2A3328F003FF02C0AD
:1007D800295F01C0295D04FD19C0213320F4A885D3
:1007E800B985119709F409C0531710F000FF01C02B
:1007F80011C020E207FF0AC020E3006102FF06C023
:100808000B7F4A936CD2503009F051505AD2503075
:1008180009F051503150A885B985129708F0BCCF1E
:1008280000FF07C0503029F05150E0E2EA9357D258
:10083800F9CF10E0FCCEAC85BD85BBD4FAD4649664
:100848000895FF92F82E2697EFD468D2309719F4BE
:10085800EFEFFFEF1BC0DE0116966BD48D015ED261
:100868004ED2E0E0E887E987DE011A9662D4A1D487
:100878005AD21A930A93E4EEF2E055D2DE011A96A0
:10088800CCDE9F0145D2E0E0EC93F901D4D42A965E
:10089800FF9008957DD12497E0E0E883E983EA8317
:1008A800EFE3EB83C3D4EB85FC85EF3FAFEFFA07AB
:1008B80031F42BD238D2A6EDB0E007D178C0EF3FA3
:1008C800AFE7FA0731F421D22ED2A7EDB0E0FDD080
:1008D8006EC0AC85AA2332F429D276D22CD230D27B
:1008E800EDE2EC93A885A73010F0E6E0E8871885DC
:1008F800E12F1150E03021F028D22CD231D2F8CF9C
:1009080034D208D318D210E0E0E0F0E060E87FE3EA
:1009180027D22BD2E2D368F018D230D221D21F5F6F
:10092800173230F0F2D1FFD1ABEDB0E0CED03FC0FE
:10093800F0CF103021F404D2E0E3EC931CC0E12F97
:100948001150E030C1F001D205D2A0E0B0E080E063
:100958009FE3E0D2DF01CB010BD102D206D278D3DC
:1009680066D20E2FEDD110D2F0D177D123D312D287
:1009780012D1E1D1E4CFE885E030A9F0E1D1EEE28F
:10098800EC93E885E150E887EF5F69F003D2F6D190
:10099800D2D1CCD14CD20E2FD3D1F6D1FBD15DD14F
:1009A800FAD0C9D1EECFAE81BF81E0E0EC9345D457
:1009B8002D960895AA93E8B3EF70AE2FE881E07FF3
:1009C800EA2BE8BBECD1C29AEAD1C298E8D17BC045
:1009D800AA93A881EFDFE881E295E883A881EADF9E
:1009E80085E88A95F1F76FC0AA93E881F0E0EE58A0
:1009F800FC4FE081A981AE0FEBDFA980E881E0938D
:100A0800760322960895A2E0E3DFA3E0F3D0ACE0FA
:100A1800DFDFA1E0DDDFA3E0EDD0E0E0E0937603E7
:100A2800AE2E0895AA93A881AA3021F0E091770309
:100A3800AE1658F0DAD0A0917603AF5FA093760394
:100A4800D3DFA881AA3009F43EC0A394C09AA88134
:100A5800BFDFC09838C09CD01A93A981BA81ED91A4
:100A6800A983BA831E2FE03019F0A12FDBDFF5CF61
:100A7800188123960895AA93E7B3E06FE7BBBA9A63
:100A8800B89AB99AC298C098C198E881E093770358
:100A9800E058E0937403E881E054E0937503A4E11F
:100AA800A9D081D180D17FD1A0E284DF88EC90E009
:100AB8000197F1F7A8E28CDFA4E08ADFA5E888DFD8
:100AC800A6E086DFA0DF2196089562D0E991F9912A
:100AD800A991B991CD0105900D920020E1F7FC0193
:100AE800089556D0A991B991EE27FF276D916623F5
:100AF80011F03196FBCF08954BD0AA27BB27E99177
:100B0800F9910590002011F01196FBCFFD01089591
:100B180077D37B816A81F981E88177FB770F67FD5D
:100B28007160972F9E5781F078F0983190F4AA273A
:100B3800BB27882708948795B795A7959A95D1F7E5
:100B4800EA23FB23682305C0E8947727EE27FF27CD
:100B580066276F77769508F4606877F9A991B99157
:100B680089919991EA17FB076807790797FB089518
:100B780047D337D3CDDF12D011F412D007C0EEF728
:100B88000FD0A0E0B0E080E89FE3BDD1249608959F
:100B9800BA93AA93089539D3B6D1089527D308955F
:100BA8001BD3089530DFE2E0EA93A0E01DCFA0E078
:100BB800FCDA6F01D601E2DA3CD16F010895002416
:100BC8000C140D040895E0917402F09175020895D3
:100BD800F0E0E45DFD4F0895F0E0E051FE4F089528
:100BE8003ADFE1E0EA93A1E0FFCEE0E0EA9308957E
:100BF800A1E0FACEB0E0DEC0F601BBD251D1FBD203
:100C0800F4CFACEDB1E046DEE8ECF1E0FA93EA931C
:100C1800EBE8F0E0FA93EA93ECEDF1E0662777274A
:100C2800EAD284E00EDE2896E0CFA8ECB1E013CF3C
:100C3800E0E0E0937402E09375020895A0916A02DF
:100C4800B0916B020895E0916802F09169020895ED
:100C5800AAE7B2E0F0E07DD208958BD221D10895C1
:100C6800E0937602F09377026093780270937902AA
:100C78000895A0917602B0917702809178029091C0
:100C880079020895ACEDB1E005DEE8ECF1E0FA9305
:100C9800EA930895FA93EA93ECEDF1E06627772753
:100CA800AAD284E0CEDD28960895AA81BB81089552
:100CB80014967FD20895ED91FD913196FE93EE93AF
:100CC80008952A93AD85BE85EF85F889099508951D
:100CD800E889F98908953497E88BF98B0895AD85EB
:100CE800BE85EF85F88909950895F2DFF4CFA889C4
:100CF800B989DECFEE83FF83AE81BF810895EE838D
:100D0800FF830895EA87FB870895EE81FF810895A0
:100D1800AE81BF810895AE83BF830895DE011C961E
:100D280008D247D20895FA93EA930895E985FA8597
:100D38006B857C850895E987FA876B877C8708959A
:100D4800E7DF1196E8DF11970895AA81BB818C81AE
:100D58009D810895EDECFCEC6CEC7DE32BD10895BE
:100D6800EA83FB836C837D830895EA81FB816C8130
:100D78007D81A985BA858B859C850895E0E0F0E0A2
:100D880060E271E417D10895E02FE05DEC93E02F65
:100D9800F0E00895A985BA858B859C8508958DE036
:100DA8008A95F1F70895A0E305DE88EC90E00197B5
:100DB800F1F70895109639F080ED97E00197F1F773
:100DC800A8951197C9F7089530976040704009F0C9
:100DD80070580895552342F4503811F4E0FF04C0C8
:100DE8003196691F791F6BF050E8572711F45F930C
:100DF800CFC05F3F31F0660F000C57956795752F90
:100E080008955F9300200AF0CFC0C8C050E8192E9B
:100E18001522880F991F9527550F879550E8072E9B
:100E28000522660F771F7527550F679508956894F3
:100E380001C0E8945F93F2DF703818F07F3F08F440
:100E4800A7C056E1571BAAF4519558300EF45930F3
:100E580030F0EFEFFFEF6FEF7FE777F91AC07727F2
:100E68005523B9F0EE0FFF1F661F771F5A95D1F76C
:100E780010C07727583028F0EF2FF62F672F5850DB
:100E8800F9CF552331F076956795F795E7955A95FB
:100E9800D1F700200AF455D15F910895689401C0F4
:100EA800E894309760407040B1F0002426F0772332
:100EB80012F4009446D1172E7EE1112032F07A9573
:100EC800EE0FFF1F661F111CF9CFEF2FF62F612DB4
:100ED8005F938ADF5F9108954F93AF01FD01DA01B7
:100EE800AB01BC01CA01402D012C142E4F9108956D
:100EF800EA0FFB1F681F0895E095F0956095EF5F76
:100F0800FF4F6F4F08955F9381DF903871F150E87C
:100F1800152604C05F937ADF903839F1703821F1D3
:100F2800572F591B2BF112F4D7DFFACF583118F08D
:100F3800AA27BB278827583028F0AB2FB82F882737
:100F48005850F9CF552329F08695B795A7955A9506
:100F5800D9F7502D512572F0CBDF38F46795F79506
:100F6800E795739513F420C0B7DF3EDF5F910895CE
:100F7800D8F7FBCFEA1BFB0B680B51F010F4009479
:100F8800BBDF662392F3EE0FFF1F661F7A95CBF740
:100F9800EE27FF27662777275F910895EFEFFFEF8A
:100FA8006FE77FEF5F910895EFEFFFEF6FE77FE760
:100FB8005F9108955F932ADF703851F3903841F3B9
:100FC80001240894791F23F41CF300203AF3ECCF92
:100FD8000F921F932F933F934F93112722279927FF
:100FE800689FA0018F9F302D410D591F6B9F300DB9
:100FF800411D591F8E9F27D0BF9F25D06A9F23D0A0
:10100800BE9F1DD0AF9F1BD0AE9F110D291F391F4A
:10101800491F591FE32FF42F652F522F4F913F91EE
:101028002F911F910F9066232AF0550FEE1FFF1F77
:10103800661F02C073954BF2CDDE5F910895100DC7
:10104800211D391F02C0200D311D491F591F089548
:101058005F93DCDE703821F411200AF49FCFA4CF0F
:10106800903809F495CF01240894970B1BF4D4F316
:101078000020F3CF792F1F932F933F934F93112481
:101088001127222733274427552790E2AE17BF0799
:101098008607410730F0AE1BBF0B860B410B089447
:1010A80001C08894551F221F331F111CAA1FBB1F84
:1010B800881F441F9A9551F7F901612D4F913F916F
:1010C8002F911F91662332F0550FEE1FFF1F661FE9
:1010D8007A9543F27FDE5F91089599239AF07723FA
:1010E80042F0971748F029F4AE17BF07860720F09B
:1010F80031F09894889408959894089408951894D1
:10110800889408957723C2F7971798F3A9F7EA17F1
:10111800FB07680788F399F3ECCFDFDFE1E009F01C
:1011280008F0EE270895D9DFE1E009F008F4EE278A
:1011380008950024AF0DB01D0895F195E195F04094
:101148000895F09560957095E195FF4F6F4F7F4F2B
:101158000895EE0FFF1FEE0FFF1F0895AA0FBB1F84
:10116800AA0FBB1F0895FE2FFF0FFF0B6F2F7F2FB6
:1011780008956F2F660F660B762F0895FA9FF02D4E
:10118800EB9FF00DEA9FE02DF10D089504D0F6DFF6
:101198000EF4D3DF0895E894F7FF02C0CEDF689419
:1011A800B7FF06C0A095B095119600F8039400FA11
:1011B8000895ED91FC9111970895ED91FD916D9130
:1011C8007C9113970895ED93FD936D937C93089507
:1011D8000590F491E02D0895E881F9816A817B8179
:1011E8000895A881B9818A819B810895E883F9834C
:1011F8006A837B8308957A936A93FA93EA930895AE
:101208009A938A93BA93AA930895182E862F612DDC
:10121800192E972F712D1B2EBF2FF12D1A2EAE2FA1
:10122800E12D08955A934A933A932A931A930A936D
:1012380008955D814C813B812A8119810881089537
:00000001FF
